{
  "contractName": "ERA",
  "abi": [
    {
      "inputs": [],
      "stateMutability": "nonpayable",
      "type": "constructor"
    },
    {
      "inputs": [],
      "name": "ApprovalCallerNotOwnerNorApproved",
      "type": "error"
    },
    {
      "inputs": [],
      "name": "ApprovalQueryForNonexistentToken",
      "type": "error"
    },
    {
      "inputs": [],
      "name": "BalanceQueryForZeroAddress",
      "type": "error"
    },
    {
      "inputs": [],
      "name": "MintERC2309QuantityExceedsLimit",
      "type": "error"
    },
    {
      "inputs": [],
      "name": "MintToZeroAddress",
      "type": "error"
    },
    {
      "inputs": [],
      "name": "MintZeroQuantity",
      "type": "error"
    },
    {
      "inputs": [],
      "name": "OwnerQueryForNonexistentToken",
      "type": "error"
    },
    {
      "inputs": [],
      "name": "OwnershipNotInitializedForExtraData",
      "type": "error"
    },
    {
      "inputs": [],
      "name": "TransferCallerNotOwnerNorApproved",
      "type": "error"
    },
    {
      "inputs": [],
      "name": "TransferFromIncorrectOwner",
      "type": "error"
    },
    {
      "inputs": [],
      "name": "TransferToNonERC721ReceiverImplementer",
      "type": "error"
    },
    {
      "inputs": [],
      "name": "TransferToZeroAddress",
      "type": "error"
    },
    {
      "inputs": [],
      "name": "URIQueryForNonexistentToken",
      "type": "error"
    },
    {
      "anonymous": false,
      "inputs": [
        {
          "indexed": true,
          "internalType": "address",
          "name": "owner",
          "type": "address"
        },
        {
          "indexed": true,
          "internalType": "address",
          "name": "approved",
          "type": "address"
        },
        {
          "indexed": true,
          "internalType": "uint256",
          "name": "tokenId",
          "type": "uint256"
        }
      ],
      "name": "Approval",
      "type": "event"
    },
    {
      "anonymous": false,
      "inputs": [
        {
          "indexed": true,
          "internalType": "address",
          "name": "owner",
          "type": "address"
        },
        {
          "indexed": true,
          "internalType": "address",
          "name": "operator",
          "type": "address"
        },
        {
          "indexed": false,
          "internalType": "bool",
          "name": "approved",
          "type": "bool"
        }
      ],
      "name": "ApprovalForAll",
      "type": "event"
    },
    {
      "anonymous": false,
      "inputs": [
        {
          "indexed": true,
          "internalType": "uint256",
          "name": "fromTokenId",
          "type": "uint256"
        },
        {
          "indexed": false,
          "internalType": "uint256",
          "name": "toTokenId",
          "type": "uint256"
        },
        {
          "indexed": true,
          "internalType": "address",
          "name": "from",
          "type": "address"
        },
        {
          "indexed": true,
          "internalType": "address",
          "name": "to",
          "type": "address"
        }
      ],
      "name": "ConsecutiveTransfer",
      "type": "event"
    },
    {
      "anonymous": false,
      "inputs": [
        {
          "indexed": true,
          "internalType": "address",
          "name": "previousOwner",
          "type": "address"
        },
        {
          "indexed": true,
          "internalType": "address",
          "name": "newOwner",
          "type": "address"
        }
      ],
      "name": "OwnershipTransferred",
      "type": "event"
    },
    {
      "anonymous": false,
      "inputs": [
        {
          "indexed": true,
          "internalType": "address",
          "name": "from",
          "type": "address"
        },
        {
          "indexed": true,
          "internalType": "address",
          "name": "to",
          "type": "address"
        },
        {
          "indexed": true,
          "internalType": "uint256",
          "name": "tokenId",
          "type": "uint256"
        }
      ],
      "name": "Transfer",
      "type": "event"
    },
    {
      "inputs": [],
      "name": "MAX_PUBLIC_MINT",
      "outputs": [
        {
          "internalType": "uint256",
          "name": "",
          "type": "uint256"
        }
      ],
      "stateMutability": "view",
      "type": "function",
      "constant": true
    },
    {
      "inputs": [],
      "name": "MAX_SUPPLY",
      "outputs": [
        {
          "internalType": "uint256",
          "name": "",
          "type": "uint256"
        }
      ],
      "stateMutability": "view",
      "type": "function",
      "constant": true
    },
    {
      "inputs": [],
      "name": "MAX_WHITELIST_MINT",
      "outputs": [
        {
          "internalType": "uint256",
          "name": "",
          "type": "uint256"
        }
      ],
      "stateMutability": "view",
      "type": "function",
      "constant": true
    },
    {
      "inputs": [],
      "name": "MAX_WHITELIST_SUPPLY",
      "outputs": [
        {
          "internalType": "uint256",
          "name": "",
          "type": "uint256"
        }
      ],
      "stateMutability": "view",
      "type": "function",
      "constant": true
    },
    {
      "inputs": [],
      "name": "PUBLIC_SALE_PRICE",
      "outputs": [
        {
          "internalType": "uint256",
          "name": "",
          "type": "uint256"
        }
      ],
      "stateMutability": "view",
      "type": "function",
      "constant": true
    },
    {
      "inputs": [],
      "name": "WHITELIST_SALE_PRICE",
      "outputs": [
        {
          "internalType": "uint256",
          "name": "",
          "type": "uint256"
        }
      ],
      "stateMutability": "view",
      "type": "function",
      "constant": true
    },
    {
      "inputs": [
        {
          "internalType": "address",
          "name": "to",
          "type": "address"
        },
        {
          "internalType": "uint256",
          "name": "tokenId",
          "type": "uint256"
        }
      ],
      "name": "approve",
      "outputs": [],
      "stateMutability": "payable",
      "type": "function",
      "payable": true
    },
    {
      "inputs": [
        {
          "internalType": "address",
          "name": "owner",
          "type": "address"
        }
      ],
      "name": "balanceOf",
      "outputs": [
        {
          "internalType": "uint256",
          "name": "",
          "type": "uint256"
        }
      ],
      "stateMutability": "view",
      "type": "function",
      "constant": true
    },
    {
      "inputs": [
        {
          "internalType": "uint256",
          "name": "tokenId",
          "type": "uint256"
        }
      ],
      "name": "getApproved",
      "outputs": [
        {
          "internalType": "address",
          "name": "",
          "type": "address"
        }
      ],
      "stateMutability": "view",
      "type": "function",
      "constant": true
    },
    {
      "inputs": [
        {
          "internalType": "address",
          "name": "owner",
          "type": "address"
        },
        {
          "internalType": "address",
          "name": "operator",
          "type": "address"
        }
      ],
      "name": "isApprovedForAll",
      "outputs": [
        {
          "internalType": "bool",
          "name": "",
          "type": "bool"
        }
      ],
      "stateMutability": "view",
      "type": "function",
      "constant": true
    },
    {
      "inputs": [],
      "name": "name",
      "outputs": [
        {
          "internalType": "string",
          "name": "",
          "type": "string"
        }
      ],
      "stateMutability": "view",
      "type": "function",
      "constant": true
    },
    {
      "inputs": [],
      "name": "owner",
      "outputs": [
        {
          "internalType": "address",
          "name": "",
          "type": "address"
        }
      ],
      "stateMutability": "view",
      "type": "function",
      "constant": true
    },
    {
      "inputs": [
        {
          "internalType": "uint256",
          "name": "tokenId",
          "type": "uint256"
        }
      ],
      "name": "ownerOf",
      "outputs": [
        {
          "internalType": "address",
          "name": "",
          "type": "address"
        }
      ],
      "stateMutability": "view",
      "type": "function",
      "constant": true
    },
    {
      "inputs": [],
      "name": "placeholderTokenUri",
      "outputs": [
        {
          "internalType": "string",
          "name": "",
          "type": "string"
        }
      ],
      "stateMutability": "view",
      "type": "function",
      "constant": true
    },
    {
      "inputs": [],
      "name": "publicSale",
      "outputs": [
        {
          "internalType": "bool",
          "name": "",
          "type": "bool"
        }
      ],
      "stateMutability": "view",
      "type": "function",
      "constant": true
    },
    {
      "inputs": [],
      "name": "renounceOwnership",
      "outputs": [],
      "stateMutability": "nonpayable",
      "type": "function"
    },
    {
      "inputs": [
        {
          "internalType": "address",
          "name": "from",
          "type": "address"
        },
        {
          "internalType": "address",
          "name": "to",
          "type": "address"
        },
        {
          "internalType": "uint256",
          "name": "tokenId",
          "type": "uint256"
        }
      ],
      "name": "safeTransferFrom",
      "outputs": [],
      "stateMutability": "payable",
      "type": "function",
      "payable": true
    },
    {
      "inputs": [
        {
          "internalType": "address",
          "name": "from",
          "type": "address"
        },
        {
          "internalType": "address",
          "name": "to",
          "type": "address"
        },
        {
          "internalType": "uint256",
          "name": "tokenId",
          "type": "uint256"
        },
        {
          "internalType": "bytes",
          "name": "_data",
          "type": "bytes"
        }
      ],
      "name": "safeTransferFrom",
      "outputs": [],
      "stateMutability": "payable",
      "type": "function",
      "payable": true
    },
    {
      "inputs": [
        {
          "internalType": "address",
          "name": "operator",
          "type": "address"
        },
        {
          "internalType": "bool",
          "name": "approved",
          "type": "bool"
        }
      ],
      "name": "setApprovalForAll",
      "outputs": [],
      "stateMutability": "nonpayable",
      "type": "function"
    },
    {
      "inputs": [
        {
          "internalType": "bytes4",
          "name": "interfaceId",
          "type": "bytes4"
        }
      ],
      "name": "supportsInterface",
      "outputs": [
        {
          "internalType": "bool",
          "name": "",
          "type": "bool"
        }
      ],
      "stateMutability": "view",
      "type": "function",
      "constant": true
    },
    {
      "inputs": [],
      "name": "symbol",
      "outputs": [
        {
          "internalType": "string",
          "name": "",
          "type": "string"
        }
      ],
      "stateMutability": "view",
      "type": "function",
      "constant": true
    },
    {
      "inputs": [],
      "name": "teamMinted",
      "outputs": [
        {
          "internalType": "bool",
          "name": "",
          "type": "bool"
        }
      ],
      "stateMutability": "view",
      "type": "function",
      "constant": true
    },
    {
      "inputs": [
        {
          "internalType": "uint256",
          "name": "tokenId",
          "type": "uint256"
        }
      ],
      "name": "tokenURI",
      "outputs": [
        {
          "internalType": "string",
          "name": "",
          "type": "string"
        }
      ],
      "stateMutability": "view",
      "type": "function",
      "constant": true
    },
    {
      "inputs": [
        {
          "internalType": "address",
          "name": "",
          "type": "address"
        }
      ],
      "name": "totalPublicMint",
      "outputs": [
        {
          "internalType": "uint256",
          "name": "",
          "type": "uint256"
        }
      ],
      "stateMutability": "view",
      "type": "function",
      "constant": true
    },
    {
      "inputs": [],
      "name": "totalSupply",
      "outputs": [
        {
          "internalType": "uint256",
          "name": "",
          "type": "uint256"
        }
      ],
      "stateMutability": "view",
      "type": "function",
      "constant": true
    },
    {
      "inputs": [],
      "name": "totalWhiteListMinted",
      "outputs": [
        {
          "internalType": "uint256",
          "name": "",
          "type": "uint256"
        }
      ],
      "stateMutability": "view",
      "type": "function",
      "constant": true
    },
    {
      "inputs": [
        {
          "internalType": "address",
          "name": "",
          "type": "address"
        }
      ],
      "name": "totalWhitelistMint",
      "outputs": [
        {
          "internalType": "uint256",
          "name": "",
          "type": "uint256"
        }
      ],
      "stateMutability": "view",
      "type": "function",
      "constant": true
    },
    {
      "inputs": [
        {
          "internalType": "address",
          "name": "from",
          "type": "address"
        },
        {
          "internalType": "address",
          "name": "to",
          "type": "address"
        },
        {
          "internalType": "uint256",
          "name": "tokenId",
          "type": "uint256"
        }
      ],
      "name": "transferFrom",
      "outputs": [],
      "stateMutability": "payable",
      "type": "function",
      "payable": true
    },
    {
      "inputs": [
        {
          "internalType": "address",
          "name": "newOwner",
          "type": "address"
        }
      ],
      "name": "transferOwnership",
      "outputs": [],
      "stateMutability": "nonpayable",
      "type": "function"
    },
    {
      "inputs": [],
      "name": "whiteListSale",
      "outputs": [
        {
          "internalType": "bool",
          "name": "",
          "type": "bool"
        }
      ],
      "stateMutability": "view",
      "type": "function",
      "constant": true
    },
    {
      "inputs": [
        {
          "internalType": "uint256",
          "name": "_quantity",
          "type": "uint256"
        }
      ],
      "name": "mint",
      "outputs": [],
      "stateMutability": "payable",
      "type": "function",
      "payable": true
    },
    {
      "inputs": [
        {
          "internalType": "uint256",
          "name": "_quantity",
          "type": "uint256"
        }
      ],
      "name": "whitelistMint",
      "outputs": [],
      "stateMutability": "payable",
      "type": "function",
      "payable": true
    },
    {
      "inputs": [],
      "name": "teamMint",
      "outputs": [],
      "stateMutability": "nonpayable",
      "type": "function"
    },
    {
      "inputs": [
        {
          "internalType": "string",
          "name": "_baseTokenUri",
          "type": "string"
        }
      ],
      "name": "setTokenUri",
      "outputs": [],
      "stateMutability": "nonpayable",
      "type": "function"
    },
    {
      "inputs": [
        {
          "internalType": "string",
          "name": "_placeholderTokenUri",
          "type": "string"
        }
      ],
      "name": "setPlaceHolderUri",
      "outputs": [],
      "stateMutability": "nonpayable",
      "type": "function"
    },
    {
      "inputs": [],
      "name": "toggleWhiteListSale",
      "outputs": [],
      "stateMutability": "nonpayable",
      "type": "function"
    },
    {
      "inputs": [],
      "name": "togglePublicSale",
      "outputs": [],
      "stateMutability": "nonpayable",
      "type": "function"
    },
    {
      "inputs": [],
      "name": "withdraw",
      "outputs": [],
      "stateMutability": "payable",
      "type": "function",
      "payable": true
    }
  ],
  "bytecode": "0x60806040523480156200001157600080fd5b506040518060400160405280600381526020017f45524100000000000000000000000000000000000000000000000000000000008152506040518060400160405280600381526020017f455241000000000000000000000000000000000000000000000000000000000081525081600290816200008f919062000448565b508060039081620000a1919062000448565b50620000b2620000fb60201b60201c565b6000819055505050620000da620000ce6200010060201b60201c565b6200010860201b60201c565b6001600c60016101000a81548160ff0219169083151502179055506200052f565b600090565b600033905090565b6000600860009054906101000a900473ffffffffffffffffffffffffffffffffffffffff16905081600860006101000a81548173ffffffffffffffffffffffffffffffffffffffff021916908373ffffffffffffffffffffffffffffffffffffffff1602179055508173ffffffffffffffffffffffffffffffffffffffff168173ffffffffffffffffffffffffffffffffffffffff167f8be0079c531659141344cd1fd0a4f28419497f9722a3daafe3b4186f6b6457e060405160405180910390a35050565b600081519050919050565b7f4e487b7100000000000000000000000000000000000000000000000000000000600052604160045260246000fd5b7f4e487b7100000000000000000000000000000000000000000000000000000000600052602260045260246000fd5b600060028204905060018216806200025057607f821691505b60208210810362000266576200026562000208565b5b50919050565b60008190508160005260206000209050919050565b60006020601f8301049050919050565b600082821b905092915050565b600060088302620002d07fffffffffffffffffffffffffffffffffffffffffffffffffffffffffffffffff8262000291565b620002dc868362000291565b95508019841693508086168417925050509392505050565b6000819050919050565b6000819050919050565b600062000329620003236200031d84620002f4565b620002fe565b620002f4565b9050919050565b6000819050919050565b620003458362000308565b6200035d620003548262000330565b8484546200029e565b825550505050565b600090565b6200037462000365565b620003818184846200033a565b505050565b5b81811015620003a9576200039d6000826200036a565b60018101905062000387565b5050565b601f821115620003f857620003c2816200026c565b620003cd8462000281565b81016020851015620003dd578190505b620003f5620003ec8562000281565b83018262000386565b50505b505050565b600082821c905092915050565b60006200041d60001984600802620003fd565b1980831691505092915050565b60006200043883836200040a565b9150826002028217905092915050565b6200045382620001ce565b67ffffffffffffffff8111156200046f576200046e620001d9565b5b6200047b825462000237565b62000488828285620003ad565b600060209050601f831160018114620004c05760008415620004ab578287015190505b620004b785826200042a565b86555062000527565b601f198416620004d0866200026c565b60005b82811015620004fa57848901518255600182019150602085019450602081019050620004d3565b868310156200051a578489015162000516601f8916826200040a565b8355505b6001600288020188555050505b505050505050565b61352a806200053f6000396000f3fe6080604052600436106102255760003560e01c8063715018a611610123578063b0962c53116100ab578063c87b56dd1161006f578063c87b56dd14610764578063e222c7f9146107a1578063e8b5498d146107b8578063e985e9c5146107e3578063f2fde38b1461082057610225565b8063b0962c53146106b2578063b88d4fde146106db578063ba7a86b8146106f7578063bc912e1a1461070e578063c08dfd3c1461073957610225565b80638da5cb5b116100f25780638da5cb5b146105ec57806395d89b4114610617578063a0712d6814610642578063a22cb4651461065e578063af2d4f141461068757610225565b8063715018a614610577578063868ff4a21461058e57806386a173ee146105aa5780638bb64a8c146105d557610225565b806323b872dd116101b15780634cf5f7a4116101755780634cf5f7a41461047c5780636352211e146104a757806365f13097146104e45780636b63a3721461050f57806370a082311461053a57610225565b806323b872dd146103e457806332cb6b0c1461040057806333bc1c5c1461042b5780633ccfd60b1461045657806342842e0e1461046057610225565b806307e89ec0116101f857806307e89ec0146102f8578063081812fc14610323578063095ea7b31461036057806318160ddd1461037c5780631c16521c146103a757610225565b806301ffc9a71461022a5780630345e3cb146102675780630675b7c6146102a457806306fdde03146102cd575b600080fd5b34801561023657600080fd5b50610251600480360381019061024c91906123dc565b610849565b60405161025e9190612424565b60405180910390f35b34801561027357600080fd5b5061028e6004803603810190610289919061249d565b6108db565b60405161029b91906124e3565b60405180910390f35b3480156102b057600080fd5b506102cb60048036038101906102c69190612644565b6108f3565b005b3480156102d957600080fd5b506102e261090e565b6040516102ef919061270c565b60405180910390f35b34801561030457600080fd5b5061030d6109a0565b60405161031a91906124e3565b60405180910390f35b34801561032f57600080fd5b5061034a6004803603810190610345919061275a565b6109ab565b6040516103579190612796565b60405180910390f35b61037a600480360381019061037591906127b1565b610a2a565b005b34801561038857600080fd5b50610391610b6e565b60405161039e91906124e3565b60405180910390f35b3480156103b357600080fd5b506103ce60048036038101906103c9919061249d565b610b85565b6040516103db91906124e3565b60405180910390f35b6103fe60048036038101906103f991906127f1565b610b9d565b005b34801561040c57600080fd5b50610415610ebf565b60405161042291906124e3565b60405180910390f35b34801561043757600080fd5b50610440610ec5565b60405161044d9190612424565b60405180910390f35b61045e610ed8565b005b61047a600480360381019061047591906127f1565b610f29565b005b34801561048857600080fd5b50610491610f49565b60405161049e919061270c565b60405180910390f35b3480156104b357600080fd5b506104ce60048036038101906104c9919061275a565b610fd7565b6040516104db9190612796565b60405180910390f35b3480156104f057600080fd5b506104f9610fe9565b60405161050691906124e3565b60405180910390f35b34801561051b57600080fd5b50610524610fee565b60405161053191906124e3565b60405180910390f35b34801561054657600080fd5b50610561600480360381019061055c919061249d565b610ff4565b60405161056e91906124e3565b60405180910390f35b34801561058357600080fd5b5061058c6110ac565b005b6105a860048036038101906105a3919061275a565b6110c0565b005b3480156105b657600080fd5b506105bf611385565b6040516105cc9190612424565b60405180910390f35b3480156105e157600080fd5b506105ea611398565b005b3480156105f857600080fd5b506106016113f6565b60405161060e9190612796565b60405180910390f35b34801561062357600080fd5b5061062c611420565b604051610639919061270c565b60405180910390f35b61065c6004803603810190610657919061275a565b6114b2565b005b34801561066a57600080fd5b5061068560048036038101906106809190612870565b61170c565b005b34801561069357600080fd5b5061069c611817565b6040516106a991906124e3565b60405180910390f35b3480156106be57600080fd5b506106d960048036038101906106d49190612644565b61181d565b005b6106f560048036038101906106f09190612951565b611838565b005b34801561070357600080fd5b5061070c6118ab565b005b34801561071a57600080fd5b5061072361192b565b60405161073091906124e3565b60405180910390f35b34801561074557600080fd5b5061074e611936565b60405161075b91906124e3565b60405180910390f35b34801561077057600080fd5b5061078b6004803603810190610786919061275a565b61193b565b604051610798919061270c565b60405180910390f35b3480156107ad57600080fd5b506107b66119d9565b005b3480156107c457600080fd5b506107cd611a37565b6040516107da9190612424565b60405180910390f35b3480156107ef57600080fd5b5061080a600480360381019061080591906129d4565b611a4a565b6040516108179190612424565b60405180910390f35b34801561082c57600080fd5b506108476004803603810190610842919061249d565b611ade565b005b60006301ffc9a760e01b827bffffffffffffffffffffffffffffffffffffffffffffffffffffffff191614806108a457506380ac58cd60e01b827bffffffffffffffffffffffffffffffffffffffffffffffffffffffff1916145b806108d45750635b5e139f60e01b827bffffffffffffffffffffffffffffffffffffffffffffffffffffffff1916145b9050919050565b600e6020528060005260406000206000915090505481565b6108fb611b61565b80600a908161090a9190612c20565b5050565b60606002805461091d90612a43565b80601f016020809104026020016040519081016040528092919081815260200182805461094990612a43565b80156109965780601f1061096b57610100808354040283529160200191610996565b820191906000526020600020905b81548152906001019060200180831161097957829003601f168201915b5050505050905090565b66b1a2bc2ec5000081565b60006109b682611bdf565b6109ec576040517fcf4700e400000000000000000000000000000000000000000000000000000000815260040160405180910390fd5b6006600083815260200190815260200160002060000160009054906101000a900473ffffffffffffffffffffffffffffffffffffffff169050919050565b6000610a3582610fd7565b90508073ffffffffffffffffffffffffffffffffffffffff16610a56611c3e565b73ffffffffffffffffffffffffffffffffffffffff1614610ab957610a8281610a7d611c3e565b611a4a565b610ab8576040517fcfb3b94200000000000000000000000000000000000000000000000000000000815260040160405180910390fd5b5b826006600084815260200190815260200160002060000160006101000a81548173ffffffffffffffffffffffffffffffffffffffff021916908373ffffffffffffffffffffffffffffffffffffffff160217905550818373ffffffffffffffffffffffffffffffffffffffff168273ffffffffffffffffffffffffffffffffffffffff167f8c5be1e5ebec7d5bd14f71427d1e84f3dd0314c0f7b2291e5b200ac8c7c3b92560405160405180910390a4505050565b6000610b78611c46565b6001546000540303905090565b600d6020528060005260406000206000915090505481565b6000610ba882611c4b565b90508373ffffffffffffffffffffffffffffffffffffffff168173ffffffffffffffffffffffffffffffffffffffff1614610c0f576040517fa114810000000000000000000000000000000000000000000000000000000000815260040160405180910390fd5b600080610c1b84611d17565b91509150610c318187610c2c611c3e565b611d3e565b610c7d57610c4686610c41611c3e565b611a4a565b610c7c576040517f59c896be00000000000000000000000000000000000000000000000000000000815260040160405180910390fd5b5b600073ffffffffffffffffffffffffffffffffffffffff168573ffffffffffffffffffffffffffffffffffffffff1603610ce3576040517fea553b3400000000000000000000000000000000000000000000000000000000815260040160405180910390fd5b610cf08686866001611d82565b8015610cfb57600082555b600560008773ffffffffffffffffffffffffffffffffffffffff1673ffffffffffffffffffffffffffffffffffffffff168152602001908152602001600020600081546001900391905081905550600560008673ffffffffffffffffffffffffffffffffffffffff1673ffffffffffffffffffffffffffffffffffffffff1681526020019081526020016000206000815460010191905081905550610dc985610da5888887611d88565b7c020000000000000000000000000000000000000000000000000000000017611db0565b600460008681526020019081526020016000208190555060007c0200000000000000000000000000000000000000000000000000000000841603610e4f5760006001850190506000600460008381526020019081526020016000205403610e4d576000548114610e4c578360046000838152602001908152602001600020819055505b5b505b838573ffffffffffffffffffffffffffffffffffffffff168773ffffffffffffffffffffffffffffffffffffffff167fddf252ad1be2c89b69c2b068fc378daa952ba7f163c4a11628f55a4df523b3ef60405160405180910390a4610eb78686866001611ddb565b505050505050565b6108ae81565b600c60009054906101000a900460ff1681565b610ee0611b61565b3373ffffffffffffffffffffffffffffffffffffffff166108fc479081150290604051600060405180830381858888f19350505050158015610f26573d6000803e3d6000fd5b50565b610f4483838360405180602001604052806000815250611838565b505050565b600b8054610f5690612a43565b80601f0160208091040260200160405190810160405280929190818152602001828054610f8290612a43565b8015610fcf5780601f10610fa457610100808354040283529160200191610fcf565b820191906000526020600020905b815481529060010190602001808311610fb257829003601f168201915b505050505081565b6000610fe282611c4b565b9050919050565b601981565b60095481565b60008073ffffffffffffffffffffffffffffffffffffffff168273ffffffffffffffffffffffffffffffffffffffff160361105b576040517f8f4eb60400000000000000000000000000000000000000000000000000000000815260040160405180910390fd5b67ffffffffffffffff600560008473ffffffffffffffffffffffffffffffffffffffff1673ffffffffffffffffffffffffffffffffffffffff16815260200190815260200160002054169050919050565b6110b4611b61565b6110be6000611de1565b565b3373ffffffffffffffffffffffffffffffffffffffff163273ffffffffffffffffffffffffffffffffffffffff161461112e576040517f08c379a000000000000000000000000000000000000000000000000000000000815260040161112590612d64565b60405180910390fd5b600c60019054906101000a900460ff1661117d576040517f08c379a000000000000000000000000000000000000000000000000000000000815260040161117490612dd0565b60405180910390fd5b6108ae81611189610b6e565b6111939190612e1f565b11156111d4576040517f08c379a00000000000000000000000000000000000000000000000000000000081526004016111cb90612ec5565b60405180910390fd5b600a81600e60003373ffffffffffffffffffffffffffffffffffffffff1673ffffffffffffffffffffffffffffffffffffffff168152602001908152602001600020546112219190612e1f565b1115611262576040517f08c379a000000000000000000000000000000000000000000000000000000000815260040161125990612f57565b60405180910390fd5b80668e1bc9bf0400006112759190612f77565b3410156112b7576040517f08c379a00000000000000000000000000000000000000000000000000000000081526004016112ae9061302b565b60405180910390fd5b61022b816009546112c89190612e1f565b1115611309576040517f08c379a0000000000000000000000000000000000000000000000000000000008152600401611300906130bd565b60405180910390fd5b80600e60003373ffffffffffffffffffffffffffffffffffffffff1673ffffffffffffffffffffffffffffffffffffffff16815260200190815260200160002060008282546113589190612e1f565b9250508190555080600960008282546113719190612e1f565b925050819055506113823382611ea7565b50565b600c60019054906101000a900460ff1681565b6113a0611b61565b600c60019054906101000a900460ff1615600c60016101000a81548160ff021916908315150217905550600c60009054906101000a900460ff1615600c60006101000a81548160ff021916908315150217905550565b6000600860009054906101000a900473ffffffffffffffffffffffffffffffffffffffff16905090565b60606003805461142f90612a43565b80601f016020809104026020016040519081016040528092919081815260200182805461145b90612a43565b80156114a85780601f1061147d576101008083540402835291602001916114a8565b820191906000526020600020905b81548152906001019060200180831161148b57829003601f168201915b5050505050905090565b3373ffffffffffffffffffffffffffffffffffffffff163273ffffffffffffffffffffffffffffffffffffffff1614611520576040517f08c379a000000000000000000000000000000000000000000000000000000000815260040161151790612d64565b60405180910390fd5b600c60009054906101000a900460ff1661156f576040517f08c379a000000000000000000000000000000000000000000000000000000000815260040161156690613129565b60405180910390fd5b6108ae8161157b610b6e565b6115859190612e1f565b11156115c6576040517f08c379a00000000000000000000000000000000000000000000000000000000081526004016115bd90613195565b60405180910390fd5b601981600d60003373ffffffffffffffffffffffffffffffffffffffff1673ffffffffffffffffffffffffffffffffffffffff168152602001908152602001600020546116139190612e1f565b1115611654576040517f08c379a000000000000000000000000000000000000000000000000000000000815260040161164b90613227565b60405180910390fd5b8066b1a2bc2ec500006116679190612f77565b3410156116a9576040517f08c379a00000000000000000000000000000000000000000000000000000000081526004016116a09061302b565b60405180910390fd5b80600d60003373ffffffffffffffffffffffffffffffffffffffff1673ffffffffffffffffffffffffffffffffffffffff16815260200190815260200160002060008282546116f89190612e1f565b925050819055506117093382611ea7565b50565b8060076000611719611c3e565b73ffffffffffffffffffffffffffffffffffffffff1673ffffffffffffffffffffffffffffffffffffffff16815260200190815260200160002060008473ffffffffffffffffffffffffffffffffffffffff1673ffffffffffffffffffffffffffffffffffffffff16815260200190815260200160002060006101000a81548160ff0219169083151502179055508173ffffffffffffffffffffffffffffffffffffffff166117c6611c3e565b73ffffffffffffffffffffffffffffffffffffffff167f17307eab39ab6107e8899845ad3d59bd9653f200f220920489ca2b5937696c318360405161180b9190612424565b60405180910390a35050565b61022b81565b611825611b61565b80600b90816118349190612c20565b5050565b611843848484610b9d565b60008373ffffffffffffffffffffffffffffffffffffffff163b146118a55761186e84848484611ec5565b6118a4576040517fd1a57ed600000000000000000000000000000000000000000000000000000000815260040160405180910390fd5b5b50505050565b6118b3611b61565b600c60029054906101000a900460ff1615611903576040517f08c379a00000000000000000000000000000000000000000000000000000000081526004016118fa90613293565b60405180910390fd5b6001600c60026101000a81548160ff021916908315150217905550611929336020611ea7565b565b668e1bc9bf04000081565b600a81565b606061194682611bdf565b61197c576040517fa14c4b5000000000000000000000000000000000000000000000000000000000815260040160405180910390fd5b6000611986612015565b905060008151036119a657604051806020016040528060008152506119d1565b806119b0846120a7565b6040516020016119c19291906132ef565b6040516020818303038152906040525b915050919050565b6119e1611b61565b600c60009054906101000a900460ff1615600c60006101000a81548160ff021916908315150217905550600c60019054906101000a900460ff1615600c60016101000a81548160ff021916908315150217905550565b600c60029054906101000a900460ff1681565b6000600760008473ffffffffffffffffffffffffffffffffffffffff1673ffffffffffffffffffffffffffffffffffffffff16815260200190815260200160002060008373ffffffffffffffffffffffffffffffffffffffff1673ffffffffffffffffffffffffffffffffffffffff16815260200190815260200160002060009054906101000a900460ff16905092915050565b611ae6611b61565b600073ffffffffffffffffffffffffffffffffffffffff168173ffffffffffffffffffffffffffffffffffffffff1603611b55576040517f08c379a0000000000000000000000000000000000000000000000000000000008152600401611b4c90613385565b60405180910390fd5b611b5e81611de1565b50565b611b696120f7565b73ffffffffffffffffffffffffffffffffffffffff16611b876113f6565b73ffffffffffffffffffffffffffffffffffffffff1614611bdd576040517f08c379a0000000000000000000000000000000000000000000000000000000008152600401611bd4906133f1565b60405180910390fd5b565b600081611bea611c46565b11158015611bf9575060005482105b8015611c37575060007c0100000000000000000000000000000000000000000000000000000000600460008581526020019081526020016000205416145b9050919050565b600033905090565b600090565b60008082905080611c5a611c46565b11611ce057600054811015611cdf5760006004600083815260200190815260200160002054905060007c0100000000000000000000000000000000000000000000000000000000821603611cdd575b60008103611cd3576004600083600190039350838152602001908152602001600020549050611ca9565b8092505050611d12565b505b5b6040517fdf2d9b4200000000000000000000000000000000000000000000000000000000815260040160405180910390fd5b919050565b60008060006006600085815260200190815260200160002090508092508254915050915091565b600073ffffffffffffffffffffffffffffffffffffffff8316925073ffffffffffffffffffffffffffffffffffffffff821691508382148383141790509392505050565b50505050565b60008060e883901c905060e8611d9f8686846120ff565b62ffffff16901b9150509392505050565b600073ffffffffffffffffffffffffffffffffffffffff83169250814260a01b178317905092915050565b50505050565b6000600860009054906101000a900473ffffffffffffffffffffffffffffffffffffffff16905081600860006101000a81548173ffffffffffffffffffffffffffffffffffffffff021916908373ffffffffffffffffffffffffffffffffffffffff1602179055508173ffffffffffffffffffffffffffffffffffffffff168173ffffffffffffffffffffffffffffffffffffffff167f8be0079c531659141344cd1fd0a4f28419497f9722a3daafe3b4186f6b6457e060405160405180910390a35050565b611ec1828260405180602001604052806000815250612108565b5050565b60008373ffffffffffffffffffffffffffffffffffffffff1663150b7a02611eeb611c3e565b8786866040518563ffffffff1660e01b8152600401611f0d9493929190613466565b6020604051808303816000875af1925050508015611f4957506040513d601f19601f82011682018060405250810190611f4691906134c7565b60015b611fc2573d8060008114611f79576040519150601f19603f3d011682016040523d82523d6000602084013e611f7e565b606091505b506000815103611fba576040517fd1a57ed600000000000000000000000000000000000000000000000000000000815260040160405180910390fd5b805181602001fd5b63150b7a0260e01b7bffffffffffffffffffffffffffffffffffffffffffffffffffffffff1916817bffffffffffffffffffffffffffffffffffffffffffffffffffffffff191614915050949350505050565b6060600a805461202490612a43565b80601f016020809104026020016040519081016040528092919081815260200182805461205090612a43565b801561209d5780601f106120725761010080835404028352916020019161209d565b820191906000526020600020905b81548152906001019060200180831161208057829003601f168201915b5050505050905090565b606060a060405101806040526020810391506000825281835b6001156120e257600184039350600a81066030018453600a81049050806120c0575b50828103602084039350808452505050919050565b600033905090565b60009392505050565b61211283836121a5565b60008373ffffffffffffffffffffffffffffffffffffffff163b146121a057600080549050600083820390505b6121526000868380600101945086611ec5565b612188576040517fd1a57ed600000000000000000000000000000000000000000000000000000000815260040160405180910390fd5b81811061213f57816000541461219d57600080fd5b50505b505050565b600080549050600082036121e5576040517fb562e8dd00000000000000000000000000000000000000000000000000000000815260040160405180910390fd5b6121f26000848385611d82565b600160406001901b178202600560008573ffffffffffffffffffffffffffffffffffffffff1673ffffffffffffffffffffffffffffffffffffffff168152602001908152602001600020600082825401925050819055506122698361225a6000866000611d88565b61226385612360565b17611db0565b6004600083815260200190815260200160002081905550600080838301905073ffffffffffffffffffffffffffffffffffffffff85169150828260007fddf252ad1be2c89b69c2b068fc378daa952ba7f163c4a11628f55a4df523b3ef600080a4600183015b81811461230a57808360007fddf252ad1be2c89b69c2b068fc378daa952ba7f163c4a11628f55a4df523b3ef600080a46001810190506122cf565b5060008203612345576040517f2e07630000000000000000000000000000000000000000000000000000000000815260040160405180910390fd5b80600081905550505061235b6000848385611ddb565b505050565b60006001821460e11b9050919050565b6000604051905090565b600080fd5b600080fd5b60007fffffffff0000000000000000000000000000000000000000000000000000000082169050919050565b6123b981612384565b81146123c457600080fd5b50565b6000813590506123d6816123b0565b92915050565b6000602082840312156123f2576123f161237a565b5b6000612400848285016123c7565b91505092915050565b60008115159050919050565b61241e81612409565b82525050565b60006020820190506124396000830184612415565b92915050565b600073ffffffffffffffffffffffffffffffffffffffff82169050919050565b600061246a8261243f565b9050919050565b61247a8161245f565b811461248557600080fd5b50565b60008135905061249781612471565b92915050565b6000602082840312156124b3576124b261237a565b5b60006124c184828501612488565b91505092915050565b6000819050919050565b6124dd816124ca565b82525050565b60006020820190506124f860008301846124d4565b92915050565b600080fd5b600080fd5b6000601f19601f8301169050919050565b7f4e487b7100000000000000000000000000000000000000000000000000000000600052604160045260246000fd5b61255182612508565b810181811067ffffffffffffffff821117156125705761256f612519565b5b80604052505050565b6000612583612370565b905061258f8282612548565b919050565b600067ffffffffffffffff8211156125af576125ae612519565b5b6125b882612508565b9050602081019050919050565b82818337600083830152505050565b60006125e76125e284612594565b612579565b90508281526020810184848401111561260357612602612503565b5b61260e8482856125c5565b509392505050565b600082601f83011261262b5761262a6124fe565b5b813561263b8482602086016125d4565b91505092915050565b60006020828403121561265a5761265961237a565b5b600082013567ffffffffffffffff8111156126785761267761237f565b5b61268484828501612616565b91505092915050565b600081519050919050565b600082825260208201905092915050565b60005b838110156126c75780820151818401526020810190506126ac565b60008484015250505050565b60006126de8261268d565b6126e88185612698565b93506126f88185602086016126a9565b61270181612508565b840191505092915050565b6000602082019050818103600083015261272681846126d3565b905092915050565b612737816124ca565b811461274257600080fd5b50565b6000813590506127548161272e565b92915050565b6000602082840312156127705761276f61237a565b5b600061277e84828501612745565b91505092915050565b6127908161245f565b82525050565b60006020820190506127ab6000830184612787565b92915050565b600080604083850312156127c8576127c761237a565b5b60006127d685828601612488565b92505060206127e785828601612745565b9150509250929050565b60008060006060848603121561280a5761280961237a565b5b600061281886828701612488565b935050602061282986828701612488565b925050604061283a86828701612745565b9150509250925092565b61284d81612409565b811461285857600080fd5b50565b60008135905061286a81612844565b92915050565b600080604083850312156128875761288661237a565b5b600061289585828601612488565b92505060206128a68582860161285b565b9150509250929050565b600067ffffffffffffffff8211156128cb576128ca612519565b5b6128d482612508565b9050602081019050919050565b60006128f46128ef846128b0565b612579565b9050828152602081018484840111156129105761290f612503565b5b61291b8482856125c5565b509392505050565b600082601f830112612938576129376124fe565b5b81356129488482602086016128e1565b91505092915050565b6000806000806080858703121561296b5761296a61237a565b5b600061297987828801612488565b945050602061298a87828801612488565b935050604061299b87828801612745565b925050606085013567ffffffffffffffff8111156129bc576129bb61237f565b5b6129c887828801612923565b91505092959194509250565b600080604083850312156129eb576129ea61237a565b5b60006129f985828601612488565b9250506020612a0a85828601612488565b9150509250929050565b7f4e487b7100000000000000000000000000000000000000000000000000000000600052602260045260246000fd5b60006002820490506001821680612a5b57607f821691505b602082108103612a6e57612a6d612a14565b5b50919050565b60008190508160005260206000209050919050565b60006020601f8301049050919050565b600082821b905092915050565b600060088302612ad67fffffffffffffffffffffffffffffffffffffffffffffffffffffffffffffffff82612a99565b612ae08683612a99565b95508019841693508086168417925050509392505050565b6000819050919050565b6000612b1d612b18612b13846124ca565b612af8565b6124ca565b9050919050565b6000819050919050565b612b3783612b02565b612b4b612b4382612b24565b848454612aa6565b825550505050565b600090565b612b60612b53565b612b6b818484612b2e565b505050565b5b81811015612b8f57612b84600082612b58565b600181019050612b71565b5050565b601f821115612bd457612ba581612a74565b612bae84612a89565b81016020851015612bbd578190505b612bd1612bc985612a89565b830182612b70565b50505b505050565b600082821c905092915050565b6000612bf760001984600802612bd9565b1980831691505092915050565b6000612c108383612be6565b9150826002028217905092915050565b612c298261268d565b67ffffffffffffffff811115612c4257612c41612519565b5b612c4c8254612a43565b612c57828285612b93565b600060209050601f831160018114612c8a5760008415612c78578287015190505b612c828582612c04565b865550612cea565b601f198416612c9886612a74565b60005b82811015612cc057848901518255600182019150602085019450602081019050612c9b565b86831015612cdd5784890151612cd9601f891682612be6565b8355505b6001600288020188555050505b505050505050565b7f455241203a3a2046756e6374696f6e2063616e6e6f742062652063616c6c656460008201527f206279206120636f6e7472616374000000000000000000000000000000000000602082015250565b6000612d4e602e83612698565b9150612d5982612cf2565b604082019050919050565b60006020820190508181036000830152612d7d81612d41565b9050919050565b7f455241203a3a204d696e74696e67206973206f6e205061757365000000000000600082015250565b6000612dba601a83612698565b9150612dc582612d84565b602082019050919050565b60006020820190508181036000830152612de981612dad565b9050919050565b7f4e487b7100000000000000000000000000000000000000000000000000000000600052601160045260246000fd5b6000612e2a826124ca565b9150612e35836124ca565b9250828201905080821115612e4d57612e4c612df0565b5b92915050565b7f455241203a3a2043616e6e6f74206d696e74206265796f6e64206d617820737560008201527f70706c7900000000000000000000000000000000000000000000000000000000602082015250565b6000612eaf602483612698565b9150612eba82612e53565b604082019050919050565b60006020820190508181036000830152612ede81612ea2565b9050919050565b7f455241203a3a2043616e6e6f74206d696e74206265796f6e642077686974656c60008201527f697374206d6178206d696e742100000000000000000000000000000000000000602082015250565b6000612f41602d83612698565b9150612f4c82612ee5565b604082019050919050565b60006020820190508181036000830152612f7081612f34565b9050919050565b6000612f82826124ca565b9150612f8d836124ca565b9250828202612f9b816124ca565b91508282048414831517612fb257612fb1612df0565b5b5092915050565b7f455241203a3a205061796d656e742069732062656c6f7720746865207072696360008201527f6500000000000000000000000000000000000000000000000000000000000000602082015250565b6000613015602183612698565b915061302082612fb9565b604082019050919050565b6000602082019050818103600083015261304481613008565b9050919050565b7f455241203a3a2043616e6e6f74206d696e74206265796f756e64206d6178207760008201527f686974656c69737420737570706c790000000000000000000000000000000000602082015250565b60006130a7602f83612698565b91506130b28261304b565b604082019050919050565b600060208201905081810360008301526130d68161309a565b9050919050565b7f4552413a3a204e6f7420596574204163746976652e0000000000000000000000600082015250565b6000613113601583612698565b915061311e826130dd565b602082019050919050565b6000602082019050818103600083015261314281613106565b9050919050565b7f455241203a3a204265796f6e64204d617820537570706c790000000000000000600082015250565b600061317f601883612698565b915061318a82613149565b602082019050919050565b600060208201905081810360008301526131ae81613172565b9050919050565b7f455241203a3a2043616e6e6f74206d696e74206265796f756e6420323520455260008201527f4121000000000000000000000000000000000000000000000000000000000000602082015250565b6000613211602283612698565b915061321c826131b5565b604082019050919050565b6000602082019050818103600083015261324081613204565b9050919050565b7f455241203a3a205465616d20616c7265616479206d696e746564000000000000600082015250565b600061327d601a83612698565b915061328882613247565b602082019050919050565b600060208201905081810360008301526132ac81613270565b9050919050565b600081905092915050565b60006132c98261268d565b6132d381856132b3565b93506132e38185602086016126a9565b80840191505092915050565b60006132fb82856132be565b915061330782846132be565b91508190509392505050565b7f4f776e61626c653a206e6577206f776e657220697320746865207a65726f206160008201527f6464726573730000000000000000000000000000000000000000000000000000602082015250565b600061336f602683612698565b915061337a82613313565b604082019050919050565b6000602082019050818103600083015261339e81613362565b9050919050565b7f4f776e61626c653a2063616c6c6572206973206e6f7420746865206f776e6572600082015250565b60006133db602083612698565b91506133e6826133a5565b602082019050919050565b6000602082019050818103600083015261340a816133ce565b9050919050565b600081519050919050565b600082825260208201905092915050565b600061343882613411565b613442818561341c565b93506134528185602086016126a9565b61345b81612508565b840191505092915050565b600060808201905061347b6000830187612787565b6134886020830186612787565b61349560408301856124d4565b81810360608301526134a7818461342d565b905095945050505050565b6000815190506134c1816123b0565b92915050565b6000602082840312156134dd576134dc61237a565b5b60006134eb848285016134b2565b9150509291505056fea2646970667358221220e2b7cf48ba285238432e4f309d2694a43d313dfd437b27f5f8b1d41fdc165a1c64736f6c63430008110033",
  "immutableReferences": {},
  "source": "// SPDX-License-Identifer: MIT\r\npragma solidity ^0.8.0;\r\n\r\nimport \"erc721a/contracts/ERC721A.sol\";\r\nimport \"@openzeppelin/contracts/access/Ownable.sol\";\r\nimport \"@openzeppelin/contracts/utils/cryptography/MerkleProof.sol\";\r\n\r\n\r\ncontract ERA is ERC721A, Ownable{\r\n\r\n    uint256 public constant MAX_SUPPLY = 2222;\r\n    uint256 public constant MAX_PUBLIC_MINT = 25;\r\n    uint256 public constant MAX_WHITELIST_MINT = 10;\r\n    uint256 public constant PUBLIC_SALE_PRICE = .05 ether;\r\n    uint256 public constant WHITELIST_SALE_PRICE = .04 ether;\r\n\r\n    uint256 public constant MAX_WHITELIST_SUPPLY = 555;\r\n    uint256 public totalWhiteListMinted;\r\n\r\n    string private  baseTokenUri;\r\n    string public   placeholderTokenUri;\r\n\r\n    bool public publicSale;\r\n    bool public whiteListSale;\r\n    bool public teamMinted;\r\n\r\n    mapping(address => uint256) public totalPublicMint;\r\n    mapping(address => uint256) public totalWhitelistMint;\r\n\r\n    constructor() ERC721A(\"ERA\", \"ERA\"){\r\n        whiteListSale = true;\r\n    }\r\n\r\n    modifier callerIsUser() {\r\n        require(tx.origin == msg.sender, \"ERA :: Function cannot be called by a contract\");\r\n        _;\r\n    }\r\n\r\n    function mint(uint256 _quantity) external payable callerIsUser{\r\n        require(publicSale, \"ERA:: Not Yet Active.\");\r\n        require((totalSupply() + _quantity) <= MAX_SUPPLY, \"ERA :: Beyond Max Supply\");\r\n        require((totalPublicMint[msg.sender] +_quantity) <= MAX_PUBLIC_MINT, \"ERA :: Cannot mint beyound 25 ERA!\");\r\n        require(msg.value >= (PUBLIC_SALE_PRICE * _quantity), \"ERA :: Payment is below the price\");\r\n\r\n        totalPublicMint[msg.sender] += _quantity;\r\n        _safeMint(msg.sender, _quantity);\r\n    }\r\n\r\n    function whitelistMint(uint256 _quantity) external payable callerIsUser{\r\n        require(whiteListSale, \"ERA :: Minting is on Pause\");\r\n        require((totalSupply() + _quantity) <= MAX_SUPPLY, \"ERA :: Cannot mint beyond max supply\");\r\n        require((totalWhitelistMint[msg.sender] + _quantity)  <= MAX_WHITELIST_MINT, \"ERA :: Cannot mint beyond whitelist max mint!\");\r\n        require(msg.value >= (WHITELIST_SALE_PRICE * _quantity), \"ERA :: Payment is below the price\");\r\n        require(totalWhiteListMinted + _quantity <= MAX_WHITELIST_SUPPLY, \"ERA :: Cannot mint beyound max whitelist supply\");\r\n\r\n        totalWhitelistMint[msg.sender] += _quantity;\r\n        totalWhiteListMinted += _quantity;\r\n        _safeMint(msg.sender, _quantity);\r\n    }\r\n\r\n    function teamMint() external onlyOwner{\r\n        require(!teamMinted, \"ERA :: Team already minted\");\r\n        teamMinted = true;\r\n        _safeMint(msg.sender, 32);\r\n    }\r\n\r\n    function _baseURI() internal view virtual override returns (string memory) {\r\n        return baseTokenUri;\r\n    }\r\n\r\n\r\n    function setTokenUri(string memory _baseTokenUri) external onlyOwner{\r\n        baseTokenUri = _baseTokenUri;\r\n    }\r\n    function setPlaceHolderUri(string memory _placeholderTokenUri) external onlyOwner{\r\n        placeholderTokenUri = _placeholderTokenUri;\r\n    }\r\n\r\n    function toggleWhiteListSale() external onlyOwner{\r\n        whiteListSale = !whiteListSale;\r\n        publicSale = !publicSale;\r\n    }\r\n\r\n    function togglePublicSale() external onlyOwner{\r\n        publicSale = !publicSale;\r\n        whiteListSale = !whiteListSale;\r\n    }\r\n\r\n    function withdraw() external payable onlyOwner{\r\n        payable(msg.sender).transfer(address(this).balance);\r\n    }\r\n}",
  "sourcePath": "C:\\Users\\MY PC\\Desktop\\Code\\ERA\\contracts\\era.sol",
  "compiler": {
    "name": "solc",
    "version": "0.8.17+commit.8df45f5f.Emscripten.clang"
  },
  "schemaVersion": "3.4.10",
  "updatedAt": "2022-11-19T10:19:15.398Z",
  "networkType": "ethereum",
  "devdoc": {
    "kind": "dev",
    "methods": {
      "approve(address,uint256)": {
        "details": "Gives permission to `to` to transfer `tokenId` token to another account. The approval is cleared when the token is transferred. Only a single account can be approved at a time, so approving the zero address clears previous approvals. Requirements: - The caller must own the token or be an approved operator. - `tokenId` must exist. Emits an {Approval} event."
      },
      "balanceOf(address)": {
        "details": "Returns the number of tokens in `owner`'s account."
      },
      "getApproved(uint256)": {
        "details": "Returns the account approved for `tokenId` token. Requirements: - `tokenId` must exist."
      },
      "isApprovedForAll(address,address)": {
        "details": "Returns if the `operator` is allowed to manage all of the assets of `owner`. See {setApprovalForAll}."
      },
      "name()": {
        "details": "Returns the token collection name."
      },
      "owner()": {
        "details": "Returns the address of the current owner."
      },
      "ownerOf(uint256)": {
        "details": "Returns the owner of the `tokenId` token. Requirements: - `tokenId` must exist."
      },
      "renounceOwnership()": {
        "details": "Leaves the contract without owner. It will not be possible to call `onlyOwner` functions anymore. Can only be called by the current owner. NOTE: Renouncing ownership will leave the contract without an owner, thereby removing any functionality that is only available to the owner."
      },
      "safeTransferFrom(address,address,uint256)": {
        "details": "Equivalent to `safeTransferFrom(from, to, tokenId, '')`."
      },
      "safeTransferFrom(address,address,uint256,bytes)": {
        "details": "Safely transfers `tokenId` token from `from` to `to`. Requirements: - `from` cannot be the zero address. - `to` cannot be the zero address. - `tokenId` token must exist and be owned by `from`. - If the caller is not `from`, it must be approved to move this token by either {approve} or {setApprovalForAll}. - If `to` refers to a smart contract, it must implement {IERC721Receiver-onERC721Received}, which is called upon a safe transfer. Emits a {Transfer} event."
      },
      "setApprovalForAll(address,bool)": {
        "details": "Approve or remove `operator` as an operator for the caller. Operators can call {transferFrom} or {safeTransferFrom} for any token owned by the caller. Requirements: - The `operator` cannot be the caller. Emits an {ApprovalForAll} event."
      },
      "supportsInterface(bytes4)": {
        "details": "Returns true if this contract implements the interface defined by `interfaceId`. See the corresponding [EIP section](https://eips.ethereum.org/EIPS/eip-165#how-interfaces-are-identified) to learn more about how these ids are created. This function call must use less than 30000 gas."
      },
      "symbol()": {
        "details": "Returns the token collection symbol."
      },
      "tokenURI(uint256)": {
        "details": "Returns the Uniform Resource Identifier (URI) for `tokenId` token."
      },
      "totalSupply()": {
        "details": "Returns the total number of tokens in existence. Burned tokens will reduce the count. To get the total number of tokens minted, please see {_totalMinted}."
      },
      "transferFrom(address,address,uint256)": {
        "details": "Transfers `tokenId` from `from` to `to`. Requirements: - `from` cannot be the zero address. - `to` cannot be the zero address. - `tokenId` token must be owned by `from`. - If the caller is not `from`, it must be approved to move this token by either {approve} or {setApprovalForAll}. Emits a {Transfer} event."
      },
      "transferOwnership(address)": {
        "details": "Transfers ownership of the contract to a new account (`newOwner`). Can only be called by the current owner."
      }
    },
    "version": 1
  },
  "userdoc": {
    "errors": {
      "ApprovalCallerNotOwnerNorApproved()": [
        {
          "notice": "The caller must own the token or be an approved operator."
        }
      ],
      "ApprovalQueryForNonexistentToken()": [
        {
          "notice": "The token does not exist."
        }
      ],
      "BalanceQueryForZeroAddress()": [
        {
          "notice": "Cannot query the balance for the zero address."
        }
      ],
      "MintERC2309QuantityExceedsLimit()": [
        {
          "notice": "The `quantity` minted with ERC2309 exceeds the safety limit."
        }
      ],
      "MintToZeroAddress()": [
        {
          "notice": "Cannot mint to the zero address."
        }
      ],
      "MintZeroQuantity()": [
        {
          "notice": "The quantity of tokens minted must be more than zero."
        }
      ],
      "OwnerQueryForNonexistentToken()": [
        {
          "notice": "The token does not exist."
        }
      ],
      "OwnershipNotInitializedForExtraData()": [
        {
          "notice": "The `extraData` cannot be set on an unintialized ownership slot."
        }
      ],
      "TransferCallerNotOwnerNorApproved()": [
        {
          "notice": "The caller must own the token or be an approved operator."
        }
      ],
      "TransferFromIncorrectOwner()": [
        {
          "notice": "The token must be owned by `from`."
        }
      ],
      "TransferToNonERC721ReceiverImplementer()": [
        {
          "notice": "Cannot safely transfer to a contract that does not implement the ERC721Receiver interface."
        }
      ],
      "TransferToZeroAddress()": [
        {
          "notice": "Cannot transfer to the zero address."
        }
      ],
      "URIQueryForNonexistentToken()": [
        {
          "notice": "The token does not exist."
        }
      ]
    },
    "kind": "user",
    "methods": {},
    "version": 1
  }
}